:020000040800F2
:1000000000040020710D0008510F0008510F000876
:10001000510F0008510F0008510F0008510F000840
:10002000510F0008510F0008510F0008810F000800
:10003000510F0008510F0008510F0008611000080F
:10004000510F0008510F0008510F0008510F000810
:10005000510F0008510F0008510F0008510F000800
:10006000510F0008510F0008510F0008C119000876
:10007000F1190008211A0008511A0008811A000815
:10008000B11A0008E11A0008510F0008510F0008CA
:10009000510F0008510F0008510F0008510F0008C0
:1000A000510F000881230008510F0008B1230008F8
:1000B000510F0008510F0008510F0008510F0008A0
:1000C000510F0008510F0008510F0008510F000890
:1000D000510F0008510F000891270008510F000828
:1000E000510F0008510F0008510F0008510F000870
:1000F000510F0008510F0008510F0008111B000894
:10010000510F0008510F0008510F0008510F00084F
:10011000510F0008510F0008510F0008510F00083F
:10012000411B0008711B0008A11B0008D11B00081F
:10013000011C0008510F0008510F0008510F000862
:10014000510F0008510F0008510F0008510F00080F
:10015000311C0008611C0008911C0008B127000830
:10016000510F0008510F0008510F0008510F0008EF
:10017000510F0008510F0008510F0008510F0008DF
:10018000510F0008510F0008510F0008510F0008CF
:10019000510F0008510F0008510F0008510F0008BF
:0C01A000510F0008510F0008510F00081B
:1001B000F0B587B001F03CFB00F0C2FF40F6E02054
:1001C00040F60001C2F20000C2F2000101F098FB0B
:1001D0004FF400608021C4F2020040F2024202F0BB
:1001E00047F84FF4006040F202424021C4F202009E
:1001F00002F03EF840F6C42040F62001C2F20000B2
:10020000C2F2000101F07CFB00200421C4F20200D4
:1002100040F2823202F02CF8002040F282320821B3
:10022000C4F2020002F024F840F6B02040F640018B
:10023000C2F20000C2F2000101F022FB4FF4805034
:100240008222C4F202004FF4007102F011F84FF460
:1002500080508222C4F202004FF4006102F008F8DC
:100260004FF480508222C4F202004FF4005101F09A
:10027000FFFF4FF480508222C4F202004FF480410D
:1002800001F0F6FF4FF4806080210122C4F20200E9
:1002900001F0EEFF4FF480600122C4F202004FF43F
:1002A000807101F0E5FF4FF4806010210122C4F25B
:1002B000020001F0DDFF4FF480600122C4F2020071
:1002C0004FF4007101F0D4FF002140F6B0200A463F
:1002D000C2F2000001F0E4FA40F6B0200121002251
:1002E000C2F2000001F0DCFA40F6B0200221002248
:1002F000C2F2000001F0D4FA40F6B020032100223F
:10030000C2F2000001F0CCFA4FF480600022C4F287
:1003100002004FF4005101F0ABFF4FF48060002267
:10032000C4F202004FF4804101F0A2FF4FF480506C
:1003300040210022C4F2020001F09AFF4FF48050E5
:1003400020210022C4F2020001F092FF4FF440602D
:100350000022C4F202004FF4006101F089FF4FF463
:10036000806002210022C4F2020001F081FF4FF4FC
:1003700080500022C4F202004FF4805101F078FF57
:100380004FF4805080210022C4F2020001F070FF7F
:1003900042F2781041F63031C2F20000C2F20001A0
:1003A000082201F09DF942F2A01041F680310822A6
:1003B000C2F20000C2F2000101F092F942F2C8104C
:1003C00041F6D031C2F20000C2F20001082201F071
:1003D00087F940F6FC2041F62041C2F20000C2F24B
:1003E0000001082201F07CF940F6283042F6B123E2
:1003F00000244FF4A8714022C0F60003C2F20000AE
:10040000009401F0D5F840F6784042F621434FF4CD
:100410009D614022C0F60003C2F20000009401F08A
:10042000C7F841F6904042F6C1334FF49D61402237
:10043000C0F60003C2F20000009401F0B9F841F2E6
:10044000601042F651334FF49D614022C0F6000324
:10045000C2F20000009401F0ABF841F2486042F6AD
:10046000F123C2F200004FF49D614022C0F6000368
:10047000009401F09DF841F68444C2F20004532731
:100480007325452640F6E020C2F2000001F080FA14
:1004900040F6E020C2F2000001F052FA40F6C4201B
:1004A000C2F2000001F04CFA40F6E02041F6704242
:1004B0000521C2F20000C2F2000201F059FA42F234
:1004C000781002A94FF0FF32C2F2000001F058F993
:1004D00042F2A01003A94FF0FF32C2F2000001F077
:1004E0004FF942F2C81004A94FF0FF32C2F20000E7
:1004F00001F046F940F6FC2005A94FF0FF32C2F2A8
:10050000000001F03DF9029B2770A370039B65700A
:10051000E370049BA6712371059BE57140F6E02012
:1005200041F6844208216371C2F20000C2F2000267
:1005300001F0F6F940F6C42041F68442C2F2000010
:100540000821C2F2000201F0EBF9642001F048F842
:1005500098E700BFAFF30080AFF30080AFF30080F7
:1005600081F0004102E000BF83F0004330B54FEA64
:1005700041044FEA430594EA050F08BF90EA020FD1
:100580001FBF54EA000C55EA020C7FEA645C7FEA64
:10059000655C00F0E2804FEA5454D4EB5555B8BF87
:1005A0006D420CDD2C4480EA020281EA030382EAF8
:1005B000000083EA010180EA020281EA0303362D8A
:1005C00088BF30BD11F0004F4FEA01314FF4801C5D
:1005D0004CEA113102D0404261EB410113F0004F6F
:1005E0004FEA03334CEA133302D0524263EB430326
:1005F00094EA050F00F0A780A4F10104D5F1200EC4
:100600000DDB02FA0EFC22FA05F2801841F100011E
:1006100003FA0EF2801843FA05F359410EE0A5F1F2
:1006200020050EF1200E012A03FA0EFC28BF4CF023
:10063000020C43FA05F3C01851EBE37101F00045D9
:1006400007D54FF0000EDCF1000C7EEB00006EEBE6
:100650000101B1F5801F1BD3B1F5001F0CD3490870
:100660005FEA30004FEA3C0C04F101044FEA4452C7
:1006700012F5800F80F09A80BCF1004F08BF5FEA4E
:10068000500C50F1000041EB045141EA050130BD2E
:100690005FEA4C0C404141EB010111F4801FA4F1D1
:1006A0000104E9D191F0000F04BF01460020B1FA26
:1006B00081F308BF2033A3F10B03B3F120020CDA5E
:1006C0000C3208DD02F1140CC2F10C0201FA0CF03C
:1006D00021FA02F10CE002F11402D8BFC2F1200CA1
:1006E00001FA02F120FA0CFCDCBF41EA0C01904057
:1006F000E41AA2BF01EB0451294330BD6FEA0404A0
:100700001F3C1CDA0C340EDC04F11404C4F120028A
:1007100020FA04F001FA02F340EA030021FA04F39C
:1007200045EA030130BDC4F10C04C4F1200220FAF3
:1007300002F001FA04F340EA0300294630BD21FA31
:1007400004F0294630BD94F0000F83F4801306BFF7
:1007500081F480110134013D4EE77FEA645C18BFEB
:100760007FEA655C29D094EA050F08BF90EA020F82
:1007700005D054EA000C04BF1946104630BD91EA7A
:10078000030F1EBF0021002030BD5FEA545C05D17D
:100790004000494128BF41F0004130BD14F58004BC
:1007A0003CBF01F5801130BD01F0004545F0FE4130
:1007B00041F470014FF0000030BD7FEA645C1ABF65
:1007C000194610467FEA655C1CBF0B46024650EA9C
:1007D000013406BF52EA033591EA030F41F40021C8
:1007E00030BD00BF90F0000F04BF0021704730B54E
:1007F0004FF4806404F132044FF000054FF0000123
:1008000050E700BF90F0000F04BF0021704730B5E3
:100810004FF4806404F1320410F0004548BF4042B8
:100820004FF000013EE700BF42004FEAE2014FEA0D
:1008300031014FEA02701FBF12F07F4393F07F4FE8
:1008400081F06051704792F0000F14BF93F07F4F1A
:10085000704730B54FF4607401F0004521F000415D
:1008600020E700BF50EA010208BF704730B54FF0E3
:1008700000050AE050EA010208BF704730B511F0E8
:10088000004502D5404261EB41014FF4806404F120
:1008900032045FEA915C3FF4DCAE4FF003025FEAA2
:1008A000DC0C18BF03325FEADC0C18BF033202EB2A
:1008B000DC02C2F1200300FA03FC20FA02F001FA84
:1008C00003FE40EA0E0021FA02F11444C1E600BF23
:1008D00070B54FF0FF0C4CF4E06C1CEA11541DBFD6
:1008E0001CEA135594EA0C0F95EA0C0F00F0DEF8A1
:1008F0002C4481EA030621EA4C5123EA4C5350EA86
:10090000013518BF52EA033541F4801143F48013D6
:1009100038D0A0FB02CE4FF00005E1FB02E506F067
:100920000042E0FB03E54FF00006E1FB03569CF0BC
:10093000000F18BF4EF0010EA4F1FF04B6F5007FC2
:1009400064F5407404D25FEA4E0E6D4146EB060634
:1009500042EAC62141EA55514FEAC52040EA5E50BD
:100960004FEACE2EB4F1FD0C88BFBCF5E06F1ED867
:10097000BEF1004F08BF5FEA500E50F1000041EB9E
:10098000045170BD06F0004646EA010140EA02004B
:1009900081EA0301B4EB5C04C2BFD4EB0C0541EA6D
:1009A000045170BD41F480114FF0000E013C00F382
:1009B000AB8014F1360FDEBF002001F0004170BDA6
:1009C000C4F10004203C35DA0C341BDC04F11404BF
:1009D000C4F1200500FA05F320FA04F001FA05F24B
:1009E00040EA020001F0004221F0004110EBD37018
:1009F00021FA04F642EB06015EEA430E08BF20EA44
:100A0000D37070BDC4F10C04C4F1200500FA04F3E6
:100A100020FA05F001FA04F240EA020001F0004178
:100A200010EBD37041F100015EEA430E08BF20EAEB
:100A3000D37070BDC4F1200500FA05F24EEA020E33
:100A400020FA04F301FA05F243EA020321FA04F062
:100A500001F0004121FA04F220EA020000EBD37019
:100A60005EEA430E08BF20EAD37070BD94F0000F19
:100A70000FD101F00046400041EB010111F4801F4D
:100A800008BF013CF7D041EA060195F0000F18BFFE
:100A9000704703F00046520043EB030313F4801F3A
:100AA00008BF013DF7D043EA0603704794EA0C0FF4
:100AB0000CEA135518BF95EA0C0F0CD050EA41060A
:100AC00018BF52EA4306D1D181EA030101F0004187
:100AD0004FF0000070BD50EA410606BF10461946AF
:100AE00052EA430619D094EA0C0F02D150EA0136BB
:100AF00013D195EA0C0F05D152EA03361CBF1046FC
:100B000019460AD181EA030101F0004141F0FE419A
:100B100041F470014FF0000070BD41F0FE4141F41E
:100B2000780170BD70B54FF0FF0C4CF4E06C1CEA1E
:100B300011541DBF1CEA135594EA0C0F95EA0C0FD3
:100B400000F0A7F8A4EB050481EA030E52EA03358E
:100B50004FEA013100F088804FEA03334FF08055AF
:100B600045EA131343EA12634FEA022245EA1115DC
:100B700045EA10654FEA00260EF000419D4208BF8D
:100B8000964244F1FD0404F5407402D25B084FEA3A
:100B90003202B61A65EB03055B084FEA32024FF4E6
:100BA00080104FF4002CB6EB020E75EB030E22BF43
:100BB000B61A754640EA0C005B084FEA3202B6EB03
:100BC000020E75EB030E22BFB61A754640EA5C00B2
:100BD0005B084FEA3202B6EB020E75EB030E22BF42
:100BE000B61A754640EA9C005B084FEA3202B6EB43
:100BF000020E75EB030E22BFB61A754640EADC0002
:100C000055EA060E18D04FEA051545EA16754FEA63
:100C100006164FEAC30343EA52734FEAC2025FEA81
:100C20001C1CC0D111F4801F0BD141EA00014FF010
:100C300000004FF0004CB6E711F4801F04BF0143E1
:100C40000020B4F1FD0C88BFBCF5E06F3FF6AFAEFD
:100C5000B5EB030C04BFB6EB020C5FEA500C50F18D
:100C6000000041EB045170BD0EF0004E4EEA113110
:100C700014EB5C04C2BFD4EB0C0541EA045170BD17
:100C800041F480114FF0000E013C90E645EA060E5B
:100C90008DE60CEA135594EA0C0F08BF95EA0C0F89
:100CA0003FF43BAF94EA0C0F0AD150EA01347FF4D1
:100CB00034AF95EA0C0F7FF425AF104619462CE7A8
:100CC00095EA0C0F06D152EA03353FF4FDAE10460B
:100CD000194622E750EA410618BF52EA43067FF45C
:100CE000C5AE50EA41047FF40DAF52EA43057FF4EC
:100CF000EBAE12E700000000000000000000000062
:100D00004FEA410212F5001215D211D56FF4787333
:100D1000B3EB625212D94FEAC12343F0004343EAD6
:100D2000505311F0004F23FA02F018BF40427047B1
:100D30004FF00000704750EA013005D111F000403B
:100D400008BF6FF0004070474FF00000704700BFD1
:100D5000704700BFAFF30080AFF30080AFF30080B7
:100D6000FEE700BFAFF30080AFF30080AFF3008079
:100D700072B640F60001C2F2000181F30988022335
:100D800083F31488BFF36F8F40F2000240F20044F7
:100D9000C2F20002C2F20004A24217D213464FF080
:100DA000553043F8040BD643A519A342C5F380057B
:100DB0000CD225B1186002F10803A34206D21A46EC
:100DC00042F8040B5860131DA342F8D340F20042CE
:100DD000C2F200028A4217D213464FF0553043F850
:100DE000040BD5434C198B42C4F380040CD224B1BC
:100DF000186002F108038B4206D21E4646F8040B27
:100E00005860331D8B42F8D301F022FE40F6740483
:100E100040F60001C2F20001C2F20004A14225D254
:100E200043F2E020C0F6000002460B4652F8046B85
:100E300043F8046BCD4304EB050CA342CCF38005CF
:100E400014D23DB116681E6001F10803A34200F1FF
:100E500008020BD21146184651F8045B526840F85C
:100E6000045B5A60031D0A1DA342F3D340F67402CB
:100E700042F2F010C2F20002C2F20000824217D227
:100E80001346002143F8041BD44300EB040E8342B5
:100E9000CEF380040CD224B1196002F1080383421E
:100EA00006D21E4646F8041B5960331D8342F8D310
:100EB00040F2AC1540F2AC16C0F60005C0F60006D4
:100EC000FFF746FFB54219D22C46E94354F8043BDC
:100ED00077189847B442C7F380070FD22FB1236821
:100EE00005F108049847B44208D2254655F8042B6A
:100EF000904760682C1D8047B442F6D340F2AC1591
:100F000040F2AC16C0F60005C0F60006FFF750F937
:100F1000B5421AD22C46EF4354F8043B06EB070CBB
:100F2000CCF380079847B4420FD22FB1226805F165
:100F300008049047B44208D2254655F8040B804770
:100F400061682C1D8847B442F6D3FFF709BF00BF84
:100F5000FEE700BFAFF30080AFF30080AFF3008087
:100F600072B6FEE7AFF30080AFF30080AFF300800E
:100F700000F0AEFA00DF00BFAFF30080AFF30080F7
:100F8000EFF30983203383F30988002383F3118867
:100F9000704700BFAFF30080AFF30080AFF3008075
:100FA00008B54FF46D43CEF200034FF44072C0F227
:100FB000FA520021996007201021DA6000F098F8B9
:100FC0000A20202100F094F80B208021BDE8084081
:100FD00000F08EB8AFF30080AFF30080AFF3008075
:100FE000202383F311884FF46D40CEF20000436854
:100FF00013F400631FD0EFF309824FF0807342F8BF
:10100000043CA2F1200181F3098840F6B013C2F23A
:1010100000039969C87F88B118688B688068984216
:1010200094BF0023012393B140F67173C0F600030F
:1010300042F8083C704783F31188704718688B6842
:101040008168994234BF00230123002BECD140F684
:101050007471C0F6000142F8081C7047AFF30080BD
:1010600008B5202383F3118800F0A2F8002383F34E
:101070001188BDE80840FFF7B3BF00BFAFF30080A1
:101080002DE9F04FC1F80CD0D0F80CD0BDE8F08FAE
:10109000002383F311882846A04700F0D9FA70474F
:1010A000F0B44FF461438408CEF20003C03400F082
:1010B000030253F82470D500FF264209AE4027EA08
:1010C000060611FA05F500F01F0002F16007012184
:1010D00011FA00F02E4343F8246043F8270043F848
:1010E0002200F0BC704700BFAFF30080AFF3008078
:1010F00030B44FF46D438508CEF20003AA1D00F012
:10110000030053F82250C000FF24844025EA040461
:1011100011FA00F0044343F8224030BC704700BF8E
:1011200040F6B010C2F2000043F2F0038269C0F64C
:1011300000039361FEE700BFAFF30080AFF30080D0
:1011400030B583B0FFF72CFF00F0DAF800F060F85C
:1011500000F026FB00F05CFB40F674004021C2F278
:10116000000000F0C5F940F6B014C2F200040122FC
:10117000A0610277002383F3118862B643F2001165
:10118000A569C0F600011C4640F6C00041F22113DB
:10119000A961C0F60003E021C2F20000009400F053
:1011A00007FA03B030BD00BFAFF30080AFF300809B
:1011B00038B540F6B013C2F200039B69DA7F0AB17A
:1011C000013ADA771A6A40F6A014C2F20004511C00
:1011D0001962E3682168581CA142E06014D08D6850
:1011E000013D8D6085B90B68CA685C602360CD6085
:1011F000002383F3118808699047202383F3118823
:10120000216888680028EED038BD00BFAFF30080A9
:1012100040F6A013C2F200034FF0FF3000225B60E3
:101220001B609860DA607047AFF30080AFF3008016
:1012300030B440F6A014C2F2000403612568C26015
:10124000AB68994204D92D68C91AAB688B42FAD3AE
:101250006B688160A54243600560186018BFAB6889
:1012600068601CBFC1EB0301A96030BC704700BFC0
:10127000036840F6A012C2F2000293421FBF9968B1
:1012800082688A189A6042681360016800234A6085
:10129000C3607047AFF30080AFF30080AFF300800E
:1012A000202383F31188037F0D2B11D8DFE803F08F
:1012B00023101007100B101010101010100B416AA3
:1012C0008B685A1C8A6090E80C001A6002685360B0
:1012D0004FF0FF3240F6B01342628168002202777D
:1012E000C2F200031B689A688A42FBD25968036005
:1012F000416008605860002383F31188704700BF85
:1013000040F6B013C2F2000300225B601B609A60DB
:101310005B611B61704700BFAFF30080AFF30080DB
:1013200040F6B013002281680277C2F200031B6806
:101330009A688A42FBD2596803604160086058602D
:10134000704700BFAFF30080AFF30080AFF30080C1
:1013500040F6B013C2F2000310B499691A68087716
:1013600014201468C87701201077104663601C6051
:101370009A6110BCFFF784BEAFF30080AFF300802A
:1013800030B54B1C87B0054617D040F6B014C2F2FA
:10139000000441F2A122A369C0F6000201A8FFF7F0
:1013A00047FF2846FFF7D4FF049B13B101A8FFF7BE
:1013B0005FFFA069406A07B030BD40F6B014FFF788
:1013C000C7FFC2F20004F4E7AFF30080AFF3008080
:1013D00040F6B012C2F2000230B494698568034648
:1013E000A06859620021854284BF217711460BD83D
:1013F0001977126891688D42FBD950681A6058605D
:101400000360536030BC704709688D68A842FBD9FF
:101410004868216060604C600121046019771846BB
:101420002146936130BCFFF72BBE00BFAFF30080B5
:1014300040F6B013C2F2000330B41868996902682C
:101440008C6853601A600125986114220023057787
:10145000CA770B77034600E01B689A68A242FBD26A
:101460005A680B604A601160596030BCFFF708BED3
:1014700040F6B013C2F2000330B4186899690268EC
:101480008C68536001251A609861002305770B77FB
:10149000034600E01B689A68A242FBD85A680B60BA
:1014A0004A601160596030BCFFF7EABDAFF30080BD
:1014B00040F6B01CC2F2000CDCF80010DCF818009A
:1014C0008A6883689A4200D87047FFF7D1BF00BF8F
:1014D00040F6B011C2F200018869C37F0BB1FFF77B
:1014E000C7BFFFF7A5BF00BFAFF30080AFF3008019
:1014F000F0B440F6B014C2F2000400226569016441
:10150000046100F12C06816000F1280745614FF06D
:10151000020360610121142403774277C477C26318
:101520008263026281778261286187620663C66294
:10153000F0BC7047AFF30080AFF30080AFF30080E2
:101540002DE9F00740F6B015C2F20005A1F1240C18
:1015500000EB0C07D5F81490C76040F80C30079BDF
:1015600041F291017B60C0F600010223396200263E
:10157000904600F1280A00F12C0203771421012380
:101580000561C0F80880C0F8149046776861C1779B
:10159000C0F84080C6638663066283778661C9F8B7
:1015A0001000C0F828A00263C262BDE8F0077047CF
:1015B00010B59C4682B0202383F31188049C6346B7
:1015C0000094FFF7BDFF00210446FFF701FF002351
:1015D00083F31188204602B010BD00BFAFF3008036
:1015E00008B50146202383F311880620FFF7C8FEC3
:1015F000002383F3118808BDAFF30080AFF30080B0
:1016000038B540F6B013C2F200039C69254660620B
:1016100055F8280FA84206D00168A162FFF780FEA6
:10162000A06AA842F8D194F81DC05FEA8C7001BF8F
:10163000226960690261226908BF50610E20BDE81D
:101640003840FFF785BE00BFAFF30080AFF30080E6
:10165000202383F31188FFF7D3BF00BFAFF30080CF
:101660004060006081607047AFF30080AFF300809E
:1016700003468068421E002A10B49A6002DB0020F4
:1016800010BC704771B140F6B014C2F200040320E0
:10169000A26953625C6882E818005A60226010BC3C
:1016A000FFF76EBE98604FF0FF30E9E7AFF30080C0
:1016B00003468068421C002A9A6000DD70471A6861
:1016C0001168104619604B6000235362FFF728BE73
:1016D0000023406000608360704700BFAFF300806C
:1016E00038B504460B4601EB82051C301146E36019
:1016F000A36084E82800FFF7B3FF04F11000002185
:10170000BDE83840FFF7ACBFAFF30080AFF3008017
:10171000436A002B10B510DD82684468013B4362C8
:1017200042F8041BA24228BF0368826028BF83607E
:101730001030FFF7BDFF002010BD4FF0FF3010BD8F
:1017400070B504460D4610301146FFF791FF06466E
:1017500080B9E368626853F8041B93422960E36030
:1017600028BF236804F11C0028BFE360FFF7A0FF37
:10177000FFF79EFE304670BDAFF30080AFF30080F0
:1017800008B5202383F31188FFF7DAFF002383F3E2
:10179000118808BDAFF30080AFF30080AFF3008085
:1017A000094940F6D01240F6CC134CF2000CC2F2BC
:1017B0000002C2F20003C2F2010C21F007002CF07B
:1017C0000701106019607047F7210020AFF3008017
:1017D000202383F3118840F6D01340F6CC1CC2F2CC
:1017E0000003C2F2000C1A68DCF80010073020F089
:1017F0000700891A88429ABF101818600022002337
:1018000083F3118810467047AFF30080AFF3008078
:1018100040F6D813C2F2000341F2D1720021C0F6A3
:10182000000203F110001A609960D960FFF750BF01
:1018300008B500F035FB43F2E010C0F6000000F000
:101840001FFC00F00DF800F03BF800F049F8BDE88F
:10185000084001F005B900BFAFF30080AFF300808E
:1018600000F0E6BDAFF30080AFF30080AFF300807F
:101870000121002301704360704700BFAFF3008077
:1018800010B52023044683F31188416089880181C3
:1018900000F0DEFD02232370002383F3118810BDC6
:1018A00008B5202383F3118800F06AFE002383F338
:1018B000118808BDAFF30080AFF30080AFF3008064
:1018C00000F036BDAFF30080AFF30080AFF30080CF
:1018D000002301220270436083600C30FFF7F8BEE2
:1018E00000F076BFAFF30080AFF30080AFF300806D
:1018F000002301220270437083704360704700BF71
:1019000010B52023044683F31188416000F088FF5E
:1019100002232370002383F3118810BDAFF30080EE
:1019200010B52023044683F3118801F039F8012310
:101930006370002383F3118810BD00BFAFF30080F4
:1019400010B52023044683F311884378012B04D07B
:101950000020002383F3118810BD01F031F800212D
:101960006170002383F3118810BD00BFAFF30080C6
:1019700010B52023044683F3118801F031F80123C8
:10198000A370002383F3118810BD00BFAFF3008064
:1019900010B52023044683F311888378012B04D0EB
:1019A0000020002383F3118810BD01F039F80021D5
:1019B000A170002383F3118810BD00BFAFF3008036
:1019C0004FF4C040C4F2020040F6F812C2F2000226
:1019D000016808B5136801F03D0181600BB15068E2
:1019E0009847BDE80840FFF7FBBA00BFAFF300809F
:1019F0004FF4C040C4F2020040F6F8120368C2F28D
:101A00000002990901F03D01936810B58C018460D2
:101A10000BB1D0689847BDE81040FFF7E1BA00BFAE
:101A20004FF4C040C4F2020040F6F8120368C2F25C
:101A30000002190C01F03D01136910B50C0484601B
:101A40000BB150699847BDE81040FFF7C9BA00BF15
:101A50004FF4C040C4F2020040F6F8120368C2F22C
:101A60000002990D01F03D01936910B58C05846069
:101A70000BB1D0699847BDE81040FFF7B1BA00BF7D
:101A80004FF4C040C4F2020040F6F812C2F2000265
:101A9000416808B5136A01F03D01C1600BB1506A9D
:101AA0009847BDE80840FFF79BBA00BFAFF300803E
:101AB0004FF4C040C4F2020040F6F8124368C2F28C
:101AC0000002990901F03D01936A10B58C01C460D0
:101AD0000BB1D06A9847BDE81040FFF781BA00BF4C
:101AE0004FF4C040C4F2020040F6F8124368C2F25C
:101AF0000002190C01F03D01136B10B50C04C46019
:101B00000BB1506B9847BDE81040FFF769BA00BFB2
:101B10004FF4C040C4F2020040F6F8124368C2F22B
:101B20000002990D01F03D01936B10B58C05C46066
:101B30000BB1D06B9847BDE81040FFF751BA00BF1A
:101B40004FF4C840C4F2020040F6F812C2F200029C
:101B5000016808B5136C01F03D0181600BB1506C58
:101B60009847BDE80840FFF73BBA00BFAFF30080DD
:101B70004FF4C840C4F2020040F6F8120368C2F203
:101B80000002990901F03D01936C10B58C0184604D
:101B90000BB1D06C9847BDE81040FFF721BA00BFE9
:101BA0004FF4C840C4F2020040F6F8120368C2F2D3
:101BB0000002190C01F03D01136D10B50C04846096
:101BC0000BB1506D9847BDE81040FFF709BA00BF50
:101BD0004FF4C840C4F2020040F6F8120368C2F2A3
:101BE0000002990D01F03D01936D10B58C058460E4
:101BF0000BB1D06D9847BDE81040FFF7F1B900BFB9
:101C00004FF4C840C4F2020040F6F812C2F20002DB
:101C1000416808B5136E01F03D01C1600BB1506E13
:101C20009847BDE80840FFF7DBB900BFAFF300807D
:101C30004FF4C840C4F2020040F6F8124368C2F202
:101C40000002990901F03D01936E10B58C01C4604A
:101C50000BB1D06E9847BDE81040FFF7C1B900BF87
:101C60004FF4C840C4F2020040F6F8124368C2F2D2
:101C70000002190C01F03D01136F10B50C04C46093
:101C80000BB1506F9847BDE81040FFF7A9B900BFEE
:101C90004FF4C840C4F2020040F6F8124368C2F2A2
:101CA0000002990D01F03D01936F10B58C05C460E1
:101CB0000BB1D06F9847BDE81040FFF791B900BF56
:101CC0002DE9F00F40F678248AB0C2F2000446F203
:101CD000B8000394C4F2020046F210440290C4F229
:101CE000020446F240400194C4F2020046F2584415
:101CF0000490C4F2020446F270400594C4F202005B
:101D000046F288440690C4F2020446F2A0400794CA
:101D1000C4F2020046F2B8440890C4F202040398E8
:101D2000099446F2100A002440F6F81346F22809F6
:101D300046F2400846F2580C46F2700746F2880612
:101D400046F2A005C2F200030460C4F2020A02983F
:101D5000CAF80040C4F20209C4F20208C4F2020C3C
:101D6000C4F20207C4F20206C4F2020546F2284B8E
:101D70001C60C4F2020BC9F800409C60C8F8004027
:101D80001C61CCF800409C613C601C6234609C6229
:101D90002C601C63046001989C6304601C64CBF895
:101DA00000409C640498046005981C6504600698D3
:101DB0009C65046007981C66046008989C664FF454
:101DC000C04104604FF4C84209981C67C4F2020184
:101DD000C4F2020204609C674FF0FF338B60CB605B
:101DE0009360D3600AB0BDE8F00F7047AFF3008096
:101DF0002DE9F04140F67824C2F20004457A2668C5
:101E00004FF0010C0CFA05F737423ED140F6F81CB2
:101E1000C2F2000C3E430CEBC50816F0FF0FC8F8E9
:101E200004301CBF4FF46053C4F20203266018BF95
:101E30001C6B4CF835201CBF44F400141C6316F4D2
:101E40007F4F1FBF4FF46053C4F202031C6B44F476
:101E5000800418BF1C6303681D6825F01F041C6004
:101E60001F6817F00104FBD1067A45683D2717FA71
:101E700006F62E6021251C605D614AB1807A090159
:101E8000FFF70EF92046BDE8F0816046BDE8F0811D
:101E90001046BDE8F08100BFAFF30080AFF30080D3
:101EA0004FF4605CC4F2020C70B400224FF0FF34B7
:101EB000DCF81010CCF81040CCF81020DCF814102E
:101EC000CCF81440CCF81420DCF820504EF210016D
:101ED000CEF2000165F080564EF6F05049F23F0513
:101EE000CCF82060CEF20000CCF820200723C0F20E
:101EF0000205DCF82460CCF82440CCF824204D60A6
:101F00008A600B60C4684FF48051CEF2000144F047
:101F10008074C4600B6843F001000860DCF8403056
:101F20004FF4E041C4F2000143F08050CCF840008F
:101F30000B6843F480700860DCF8703003F4407183
:101F4000B1F5007F4FF4E043C4F200031EBF4FF42D
:101F50008031CCF87010CCF87020586820F40072F2
:101F60005A6070BCFFF7ACBEAFF30080AFF30080E7
:101F70004FF460514FF4E04CC4F20201C4F2000C83
:101F80004FF080534FF440420B64CCF800200868B7
:101F900040F001030B6008684FF460538007C4F2FF
:101FA0000203F8D5986820F0030199609A681946F1
:101FB0009A608B684FF4605213F00C03C4F2020273
:101FC000F7D1106800F0F90111609360106840F4D7
:101FD0008031116011684FF460538903C4F2020329
:101FE000F8D5586F40F001025A6719464A6F4FF40E
:101FF00060539007C4F20203F8D545F20842C0F2DC
:1020000040725A6018684FF4E04240F080711960E5
:10201000C4F2000253685904FCD54FF46051C4F275
:10202000020108684FF460538201C4F20203F8D53C
:102030004FF4705C4FF41441C4F2020CC3F6080173
:1020400040F205709960CCF800009A6842F00201F5
:1020500099601946886800F00C024FF46053082A12
:10206000C4F20203F6D1596C41F4804058645A6EB0
:1020700042F4804159667047AFF30080AFF30080AF
:102080004FF4605CC4F2020CDCF830206FEA52239B
:102090006FEA4321CCF83010DCF850206FEA52236D
:1020A0006FEA4321CCF8501000234268C4F20203C7
:1020B0004FF4806C5A6081689960C268DA60016987
:1020C000596142691A628169596202681A60016A3B
:1020D000C4F2020C4FF40063CCF80410426ACCF84E
:1020E0000820816ACCF80C10C26ACCF81420016B6D
:1020F000CCF82010426BCCF82420C169CCF8001039
:10210000C4F20203C26B5A60016C9960426CDA60DF
:10211000816C5961C26C1A62016D5962826B4FF415
:10212000406C1A60816DC4F2020C4FF48053CCF8FD
:102130000410C26DCCF80820016ECCF80C10426E71
:10214000CCF81420816ECCF82010C26ECCF824207C
:10215000416DCCF80010C4F20203426F5A60816FE7
:102160009960C26FDA60D0F880105961D0F884208D
:102170001A62D0F888105962026F4FF4A05C1A609E
:10218000D0F89010C4F2020C4FF4C053CCF80410F5
:10219000D0F89420CCF80820D0F89810CCF80C1087
:1021A000D0F89C20CCF81420D0F8A010CCF8201047
:1021B000D0F8A420CCF82420D0F88C10CCF8001053
:1021C000D0F8AC20C4F202034FF4E05C5A60D0F8BF
:1021D000B0109960D0F8B420DA60D0F8B810596126
:1021E000D0F8BC201A62D0F8C0105962D0F8A820EC
:1021F000C4F2020C1A60D0F8C810CCF80410D0F861
:10220000CC20CCF80820D0F8D030CCF80C30D0F866
:10221000D410CCF81410D0F8D820CCF82020D0F866
:10222000DC30CCF82430D0F8C4104FF40053CCF894
:102230000010D0F8E420C4F202035A60D0F8E8108D
:102240009960D0F8EC20DA60D0F8F0105961D0F83D
:10225000F4201A62D0F8F8105962D0F8E0201A6021
:10226000704700BFAFF30080AFF30080AFF3008092
:102270002DE9F00F02F00307C2F38006C2F3C10597
:10228000C2F34114C2F3C31200234FF00F094FF001
:10229000010B924604E07600AD00A400BF000133BC
:1022A000CA073ED5072B03F0070294BFD0F8208061
:1022B000D0F824804FEA820C0AFA0CF209FA0CFCDE
:1022C00095BF28EA0C0C28EA0C0C4CEA02024CEAF6
:1022D000020294BF0262426242680BFA03FC22EAE5
:1022E0000C0848EA060242604FF003085A00D0F892
:1022F00008C008FA02F2D24302EA0C0C4CEA050CC0
:10230000C0F808C0D0F80CC002EA0C0C4CEA040C6F
:10231000C0F80CC0D0F800C002EA0C0C4CEA07026E
:1023200002604908B7D1BDE8F00F7047AFF30080F5
:1023300038B540F67C2C40F68024C2F20004C2F28C
:10234000000C20464FF0FF35ACF80050FFF7C0FA04
:1023500009494FF4605016224623C4F2000001F1EF
:102360000C05C0F20102C0F20103E0612162656266
:10237000A262E36238BD00BF44310008AFF30080C1
:1023800040F6B020C2F2000008B500234268C4F253
:1023900001036FF00101196193689847BDE8084097
:1023A000FEF71EBEAFF30080AFF30080AFF30080F6
:1023B0000023C4F2010310B51869D96800EA0104CA
:1023C000E4B2E243A0071A6126D461071AD42207B7
:1023D0000ED4E30608D540F6B02EC2F2000E7046C9
:1023E000DEF804309A6A9047BDE81040FEF7F8BD69
:1023F00040F6B02CC2F2000C6046DCF804100B6A08
:102400009847E6E740F6B02EC2F2000E7046DEF8BE
:10241000042091698847DAE740F6B02CC2F2000C3C
:102420006046DCF804301A699047CEE7AFF30080CD
:1024300010B540F6B024C2F200042046FFF718FAA7
:102440000023C4F20103236110BD00BFAFF300807D
:102450000378012B70B5044664D0036900251D6024
:102460005D639D63DD631D645D626268E668156897
:102470002489D168D06AB6FBF5F5013D013C01F035
:102480000F01ADB2A4B201299D62DC62586003D095
:1024900002290CBF03210021506900F00F00012820
:1024A00025D0022821D0D46904F00F00012825D0BE
:1024B000022832D0506A00F00F00012825D00228EF
:1024C00026D0146B9068196224F0FF02002818BF10
:1024D00042F0010201210020596118614FF40041CE
:1024E000DA60852259641A6070BD41F02001D46918
:1024F00004F00F00012841F01001D9D141F480719E
:10250000506A00F00F000128D9D141F48051D8E77A
:1025100041F4005141F48051D3E741F4007141F49A
:102520008071EDE740F6B021C2F20001884205D08B
:10253000236946F668029A61DA6196E74FF46055BE
:10254000C4F202050022686C40F0010169646B6A04
:1025500043F001066E62192070216A62FEF7A0FD49
:102560001B207021FEF79CFD4FF4F440C0F60320C1
:10257000E060DDE7AFF30080AFF30080AFF30080F1
:1025800010B44468036904EBC10C01F10C0403EBC3
:102590008404DCF81000626048B10220DA6810FAA6
:1025A00001F1114203D10A43C943DA60196110BC39
:1025B000704700BFAFF30080AFF30080AFF300803F
:1025C00042680369D2681B6800F11801C068D960CD
:1025D000002A14BF4FF4887C4FF4807C4CEA000240
:1025E000012159601A60186840EA01021A607047B8
:1025F00030B404692268116821F01F031360156864
:10260000EB07FCD4257A416963680A683D24AC4035
:102610001C60136823F01F041460136813F0010397
:10262000FBD10C7A826849683D20A0400860938104
:102630001382938230BC7047AFF30080AFF3008009
:10264000F8B58568AF892C88AA8840F20F11A4B22A
:1026500004EA01030646BFB2DBB1426813694FF6D4
:10266000FF602880ABB114F0080118BF1021E20709
:1026700048BF41F00401A00748BF41F008016207CC
:1026800048BF41F02001E00548BF41F0400130461D
:10269000984761060FD57A060DD573684FF6BF715E
:1026A0005B6807EA01004FF6BF7CA5F800C0A8816F
:1026B0000BB130469847F8BDAFF30080AFF3008010
:1026C00011F00C0F38B5044625D161690A6810680D
:1026D00020F01F0313601568E807FCD46368087ACC
:1026E0005A6849683D2515FA00F0086032B1A268C1
:1026F000908981B241F0400CA2F80CC01B68022204
:1027000062702BB1204698476378022B00D038BD09
:102710000021617038BDFEF723FCD6E7AFF30080DF
:1027200011F00C0F10B5044622D1A3783BB96068B4
:10273000C368E3B1218B204689B2984710BD216957
:102740000A68106820F01F0313601368DB07FCD4CD
:10275000087A63684A689B683D21814011600222C3
:10276000A27043B120469847A278022A03D010BD38
:10277000FEF7F6FBD9E700212046A170BDE8104026
:10278000FFF71EBFAFF30080AFF30080AFF3008010
:1027900008B540F6C420C2F20000FFF751FFBDE8C3
:1027A0000840FEF71DBC00BFAFF30080AFF3008010
:1027B00008B540F6E020C2F20000FFF741FFBDE897
:1027C0000840FEF70DBC00BFAFF30080AFF3008000
:1027D00070B540F6C424C2F20004104E204640F604
:1027E000E025FFF785F8C2F200054FF48843C4F2F4
:1027F000000306F10C0106222846A360E260266170
:102800006161FFF775F84FF4A05306F13C02C4F282
:1028100001037836AB602A616E6170BD5C310008DF
:1028200038B50378012B044618BF856845D00022CF
:10283000A27062702046FFF7DBFEA2684FF4805062
:10284000C4F20100131A59424FF4A05CC4F2010C07
:1028500041EB0300624514BF034640F00103626888
:1028600013BB51694DF6806CC0F2802CBCFBF1F0BB
:102870002881B2F818C0518BB2F81CE02888A888CB
:102880004CF404504EF0C10241F0400C40F00C0EEC
:10289000002320462B80A5F810C0AA82A5F80CE0E2
:1028A000BDE83840FFF78CBE53694FF43D4EC0F28F
:1028B000015EBEFBF3F12981DBE740F6C421C2F2E1
:1028C000000188421BD040F6E021C2F2000188429C
:1028D0003AD0616820690A8B63690168186802F45C
:1028E000A055B5F5805F02BFE56845F42055E56069
:1028F000A5682A1D8A6000218260218397E742F241
:10290000217203460C21C0F600020069FFF770FA3D
:1029100042F2C162C0F600020C2123466069FFF753
:1029200067FA4FF4605CC4F2020C2620DCF84030F9
:1029300043F40035CCF84050C021FEF7B1FBE2680B
:1029400042F00060E060C4E742F2217203460C21CD
:10295000C0F600020069FFF74BFA42F2C162C0F60E
:1029600000020C2123466069FFF742FA4FF4605CD5
:10297000C4F2020C4720DCF8443043F02005CCF8C8
:102980004450C021FEF78CFBE26842F02060E0601A
:102990009FE700BFAFF30080AFF30080AFF300808C
:1029A0004369C0681B6840F48A60DA605960186047
:1029B000186840F001021A60704700BFAFF3008052
:1029C00041690A68106820F01F0313601368DB0771
:1029D000FCD4087A4B683D218140196050687047EB
:1029E00070B4046923681E6826F01F051D601D6809
:1029F000ED07FCD4257A64683D2616FA05F52560B6
:102A0000C068DA6040F4826259601A60186840F069
:102A100001021A6070BC7047AFF30080AFF3008012
:102A200001690A6810B5146824F01F031360136865
:102A3000DB07FCD40C7A4B683D21A1401960546837
:102A4000FFF7BEFD204610BDAFF30080AFF300805E
:102A5000FFF78EBAAFF30080AFF30080AFF30080D2
:102A6000704700BFAFF30080AFF30080AFF300808A
:102A7000704700BFAFF30080AFF30080AFF300807A
:102A8000704700BFAFF30080AFF30080AFF300806A
:102A9000704700BFAFF30080AFF30080AFF300805A
:102AA000704700BFAFF30080AFF30080AFF300804A
:102AB0004FF4406010B5C4F202004FF4804101228F
:102AC000FFF7D6FB4FF44064C4F202044FF4804099
:102AD00020834FF4FA70FEF783FD4FF48043638345
:102AE0004FF4FA70FEF77CFDF0E700BFAFF3008013
:102AF000F8B500244FF4805722462346C4F202075B
:102B00003E693D6983F00103C6F30036334282F02B
:102B10000102C5F3C01518BF01342A4218BF013C99
:102B20002046FDF76FFE08A3D3E90023FDF7D0FE92
:102B3000FEF7E6F8014640F6FC20C2F20000FEF780
:102B4000E7FD33462A46DBE7C976BE9F1A2FBD3F15
:102B50002DE9F04100244FF440674FF4806822468D
:102B60002346C4F20207C4F202083E69D8F81050A6
:102B700083F00103C6F3C026334282F00102C5F39D
:102B8000400518BF013C2A4218BF01342046FDF71A
:102B900039FE09A3D3E90023FDF79AFEFEF7B0F84A
:102BA000014642F2C810C2F20000FEF7B1FD334602
:102BB0002A46DAE7AFF300802D431CEBE2368A3F6A
:102BC000F8B500244FF4805722462346C4F202078A
:102BD0003E693D6983F00103C6F38016334282F0FB
:102BE0000102C5F3401518BF01342A4218BF013C49
:102BF0002046FDF707FE08A3D3E90023FDF768FE92
:102C0000FEF77EF8014642F2A010C2F20000FEF785
:102C10007FFD33462A46DBE7FCA9F1D24D62703FC7
:102C2000F8B500244FF4806722462346C4F2020719
:102C30003E693D6983F00103C6F34036334282F0BA
:102C40000102C5F3803518BF01342A4218BF013C88
:102C50002046FDF7D7FD08A3D3E90023FDF738FE92
:102C6000FEF74EF8014642F27810C2F20000FEF77D
:102C70004FFD33462A46DBE7FCA9F1D24D62703F97
:102C80002DE9F041B1F1300418BF0124312814BFFF
:102C9000002304F001030E4605461746DBB9322D2A
:102CA00014BF002004F00100002856D1332D14BFBA
:102CB000002204F00102002A40F09580342D14BF58
:102CC000002404F00104002C40F0CE80302E00F0EF
:102CD000FA80BDE8F0814FF44062C4F2020240F68F
:102CE000B02848F2000EC2F200084FF400534FF42F
:102CF000805013835083A2F81AE0B8F808304FF4DC
:102D00007A6148F6AD3C01FB03F0C6F6DB0C8CFBA8
:102D100000E20021120B4046FEF7C2FD0121002215
:102D20004046FEF7BDFD022100224046FEF7B8FDF9
:102D3000032100224046FEF7B3FD4FF48063302F9D
:102D4000C4F2020300F0F4808022322D14BF002070
:102D500004F001005A830028A8D04FF4406CC4F25C
:102D6000020C40F6B02848F20003C2F200084FF40B
:102D7000805E00214FF40050ACF818E00A46ACF831
:102D80001A00ACF81A304046FEF78AFDB8F8080081
:102D900046F26761C6F2666181FB00020121CA400A
:102DA0004046FEF77DFD022100224046FEF778FDF9
:102DB000032100224046FEF773FD4FF4806C302F54
:102DC000C4F2020C0BBF4FF480734FF48071ACF867
:102DD0001830ACF81A10332D14BF002204F0010291
:102DE000002A3FF46BAF4FF4406CC4F2020C40F683
:102DF000B028C2F200084FF4005E00214FF4805367
:102E000048F20002ACF818204046ACF81AE00A4636
:102E1000ACF81A30FEF744FD012100224046FEF7CF
:102E20003FFDB8F8081046F26760C6F2666080FBA6
:102E30000103022133FA01F24046FEF731FD03217E
:102E400000224046FEF72CFD4FF48063302FC4F281
:102E500002036AD01020342D14BF002404F00104B2
:102E60005883002C3FF432AF40F6B024C2F2000485
:102E700000210A462046FEF713FD012100222046CC
:102E8000FEF70EFD022100222046FEF709FD2189F2
:102E900046F26760C6F2666080FB01E29208032199
:102EA0002046FEF7FDFC4FF4806C302FC4F2020C7C
:102EB0000BBF4FF400734FF40072ACF81830ACF84D
:102EC0001A20BDE8F08140F6B020C2F20000214691
:102ED0002246FEF7E5FC40F6B020C2F200000121D8
:102EE0002246FEF7DDFC40F6B020C2F200000221CF
:102EF0002246FEF7D5FC40F6B02003212246C2F25E
:102F00000000FEF7CDFC4FF4406CC4F2020C4FF40D
:102F100080514FF4005348F20002ACF81A10ACF89C
:102F20001A30ACF81A20BDE8F08110211983C5E6EB
:102F300080211983B3E600BFAFF30080AFF30080B8
:102F400030B541F67044C2F2000487B02378532BA9
:102F500000F0C580002213466178532900F0898073
:102F6000002A40F08880A178532979D0002A79D1AD
:102F7000E17853295DD0002A5DD12179532940D0D1
:102F8000002A40D16179532922D0002A22D1A17987
:102F9000532905D03AB9E179002A73D107B030BD81
:102FA000002A00F0908006AD05EB830C0133042B62
:102FB0004CF8141CEFD101995329ECD10598452800
:102FC000E9D102AA07CAFFF75BFE00221346E2E737
:102FD000002A74D006AD05EB830C0133042B4CF8AA
:102FE000141CD4D101995329D1D105984528CED1AB
:102FF0000DF1080E9EE80700FFF742FE002213467F
:10300000C5E7002A57D006AD05EB830C0133042B2E
:103010004CF8141CB6D101995329B3D10598452811
:10302000B0D102AB93E80700FFF72AFE0022134657
:10303000A8E7002A3BD006AD05EB83000133042B43
:1030400040F8141C99D10199532996D10598452827
:1030500093D102AA07CAFFF713FE002213468CE79A
:10306000002A38D006AD05EB830C01334CF8141C54
:103070007EE7002A2BD006AD05EB8300013340F834
:10308000141C70E706A800EB830C032B4CF8141CEF
:1030900084D1019B532B81D1059945297FF47EAFC3
:1030A00002AA07CA07B0BDE83040FFF7E9BD012218
:1030B0000191134661E701220191134662E7012263
:1030C0000191134663E701220191134663E7012250
:1030D0000191134647E701220191134648E7012277
:1030E0000193134638E700BFAFF30080AFF30080D1
:1030F00069646C6500000000000000000000000032
:103100006D61696E00168811040448080C101418CB
:10311000001C1D1E1F200000000000000000000019
:10312000106002400860024000000B00286002406E
:103130000860024006010C00406002400860024046
:1031400010020D00586002400860024016030E0095
:10315000706002400C60024000040F008860024072
:103160000C60024006051000A06002400C600240A6
:1031700010061100B86002400C60024016072F00D4
:1031800010640240086402400008380028640240CD
:1031900008640240060939004064024008640240A5
:1031A000100A3A005864024008640240160B3B00C3
:1031B000706402400C640240000C3C0088640240D1
:1031C0000C640240060D4400A06402400C640240FE
:1031D000100E4500B86402400C640240160F460011
:1031E00000AAA02A00000000FFABFFFF540001402E
:1031F000FFFF00000000565500AA0A0080200800CA
:1032000040020000FFFFFFFF15455155FFFF000082
:1032100000000004400000000180200200000000C7
:10322000FFFFFFFF54154554FFFF00000000006042
:10323000000606000001005500000000FFFFFFFF30
:1032400055505500FF0F0000000000000000000076
:103250004000000000000000FFFFFFFF0000000032
:10326000FFFF000000000000000000000000000060
:1032700000000000FFFFFFFF00000000FFFF000054
:10328000000000000000000000000000000000003E
:10329000FFFFFFFF00000000FFFF00000000000034
:1032A000000000000000000000000000FFFFFFFF22
:1032B00000000000FFFF0000000000000000000010
:1032C0000000000000000000FFFFFFFF0000000002
:0C32D000FFFF00000000000000000000F4
:1032E000712A0008812A0008412F0008A12A00083D
:1032F000912A000880250000000000400000000026
:1033000000000000000000000000000000000000BD
:1033100000000000802500000000004000000000C8
:10332000A08601000A00000000000000110000005B
:10333000000000001100000000000000110000006B
:10334000000000001100000000000000000000006C
:043350000000000079
:0400000508000D7171
:00000001FF
